{
  "contractName": "Land",
  "abi": [
    {
      "inputs": [],
      "stateMutability": "nonpayable",
      "type": "constructor"
    },
    {
      "anonymous": false,
      "inputs": [
        {
          "indexed": false,
          "internalType": "uint256",
          "name": "landId",
          "type": "uint256"
        },
        {
          "indexed": false,
          "internalType": "string",
          "name": "status",
          "type": "string"
        }
      ],
      "name": "LandApproval",
      "type": "event"
    },
    {
      "anonymous": false,
      "inputs": [
        {
          "indexed": false,
          "internalType": "uint256",
          "name": "landId",
          "type": "uint256"
        },
        {
          "indexed": false,
          "internalType": "address",
          "name": "owner",
          "type": "address"
        }
      ],
      "name": "LandRegistered",
      "type": "event"
    },
    {
      "anonymous": false,
      "inputs": [
        {
          "indexed": false,
          "internalType": "uint256",
          "name": "landId",
          "type": "uint256"
        },
        {
          "indexed": false,
          "internalType": "address",
          "name": "requester",
          "type": "address"
        }
      ],
      "name": "LandRequest",
      "type": "event"
    },
    {
      "anonymous": false,
      "inputs": [
        {
          "indexed": false,
          "internalType": "address",
          "name": "userId",
          "type": "address"
        },
        {
          "indexed": false,
          "internalType": "string",
          "name": "name",
          "type": "string"
        }
      ],
      "name": "UserRegistered",
      "type": "event"
    },
    {
      "inputs": [],
      "name": "contractOwner",
      "outputs": [
        {
          "internalType": "address",
          "name": "",
          "type": "address"
        }
      ],
      "stateMutability": "view",
      "type": "function",
      "constant": true
    },
    {
      "inputs": [
        {
          "internalType": "uint256",
          "name": "",
          "type": "uint256"
        }
      ],
      "name": "landIds",
      "outputs": [
        {
          "internalType": "uint256",
          "name": "",
          "type": "uint256"
        }
      ],
      "stateMutability": "view",
      "type": "function",
      "constant": true
    },
    {
      "inputs": [
        {
          "internalType": "uint256",
          "name": "",
          "type": "uint256"
        }
      ],
      "name": "lands",
      "outputs": [
        {
          "internalType": "address payable",
          "name": "owner",
          "type": "address"
        },
        {
          "internalType": "string",
          "name": "ipfsHash",
          "type": "string"
        },
        {
          "internalType": "string",
          "name": "location",
          "type": "string"
        },
        {
          "internalType": "uint256",
          "name": "price",
          "type": "uint256"
        },
        {
          "internalType": "uint256",
          "name": "id",
          "type": "uint256"
        },
        {
          "internalType": "string",
          "name": "govtApprovalStatus",
          "type": "string"
        },
        {
          "internalType": "string",
          "name": "availabilityStatus",
          "type": "string"
        },
        {
          "internalType": "address",
          "name": "requester",
          "type": "address"
        },
        {
          "internalType": "enum Land.RequestStatus",
          "name": "requestStatus",
          "type": "uint8"
        }
      ],
      "stateMutability": "view",
      "type": "function",
      "constant": true
    },
    {
      "inputs": [
        {
          "internalType": "uint256",
          "name": "",
          "type": "uint256"
        }
      ],
      "name": "userAddresses",
      "outputs": [
        {
          "internalType": "address",
          "name": "",
          "type": "address"
        }
      ],
      "stateMutability": "view",
      "type": "function",
      "constant": true
    },
    {
      "inputs": [
        {
          "internalType": "address",
          "name": "",
          "type": "address"
        }
      ],
      "name": "users",
      "outputs": [
        {
          "internalType": "address",
          "name": "userId",
          "type": "address"
        },
        {
          "internalType": "string",
          "name": "name",
          "type": "string"
        },
        {
          "internalType": "uint256",
          "name": "contact",
          "type": "uint256"
        },
        {
          "internalType": "string",
          "name": "email",
          "type": "string"
        },
        {
          "internalType": "uint256",
          "name": "postalCode",
          "type": "uint256"
        },
        {
          "internalType": "string",
          "name": "city",
          "type": "string"
        },
        {
          "internalType": "bool",
          "name": "exists",
          "type": "bool"
        }
      ],
      "stateMutability": "view",
      "type": "function",
      "constant": true
    },
    {
      "inputs": [
        {
          "internalType": "address",
          "name": "_userId",
          "type": "address"
        },
        {
          "internalType": "string",
          "name": "_name",
          "type": "string"
        },
        {
          "internalType": "uint256",
          "name": "_contact",
          "type": "uint256"
        },
        {
          "internalType": "string",
          "name": "_email",
          "type": "string"
        },
        {
          "internalType": "uint256",
          "name": "_postalCode",
          "type": "uint256"
        },
        {
          "internalType": "string",
          "name": "_city",
          "type": "string"
        }
      ],
      "name": "registerUser",
      "outputs": [],
      "stateMutability": "nonpayable",
      "type": "function"
    },
    {
      "inputs": [
        {
          "internalType": "string",
          "name": "_ipfsHash",
          "type": "string"
        },
        {
          "internalType": "string",
          "name": "_location",
          "type": "string"
        },
        {
          "internalType": "uint256",
          "name": "_price",
          "type": "uint256"
        },
        {
          "internalType": "uint256",
          "name": "_id",
          "type": "uint256"
        }
      ],
      "name": "registerLand",
      "outputs": [],
      "stateMutability": "nonpayable",
      "type": "function"
    },
    {
      "inputs": [
        {
          "internalType": "uint256",
          "name": "_landId",
          "type": "uint256"
        }
      ],
      "name": "requestLand",
      "outputs": [],
      "stateMutability": "nonpayable",
      "type": "function"
    },
    {
      "inputs": [
        {
          "internalType": "uint256",
          "name": "_landId",
          "type": "uint256"
        },
        {
          "internalType": "string",
          "name": "_status",
          "type": "string"
        }
      ],
      "name": "approveLand",
      "outputs": [],
      "stateMutability": "nonpayable",
      "type": "function"
    },
    {
      "inputs": [
        {
          "internalType": "uint256",
          "name": "_landId",
          "type": "uint256"
        },
        {
          "internalType": "enum Land.RequestStatus",
          "name": "_status",
          "type": "uint8"
        }
      ],
      "name": "processRequest",
      "outputs": [],
      "stateMutability": "nonpayable",
      "type": "function"
    },
    {
      "inputs": [
        {
          "internalType": "uint256",
          "name": "_landId",
          "type": "uint256"
        }
      ],
      "name": "buyLand",
      "outputs": [],
      "stateMutability": "payable",
      "type": "function",
      "payable": true
    },
    {
      "inputs": [],
      "name": "getAllLandIds",
      "outputs": [
        {
          "internalType": "uint256[]",
          "name": "",
          "type": "uint256[]"
        }
      ],
      "stateMutability": "view",
      "type": "function",
      "constant": true
    },
    {
      "inputs": [],
      "name": "getAllUserAddresses",
      "outputs": [
        {
          "internalType": "address[]",
          "name": "",
          "type": "address[]"
        }
      ],
      "stateMutability": "view",
      "type": "function",
      "constant": true
    }
  ],
  "bytecode": "0x608060405234801561000f575f80fd5b50335f806101000a81548173ffffffffffffffffffffffffffffffffffffffff021916908373ffffffffffffffffffffffffffffffffffffffff160217905550612d448061005c5f395ff3fe6080604052600436106100c1575f3560e01c8063903a94511161007e578063ced3955811610058578063ced3955814610273578063d7dee1921461028f578063e261f1e5146102b9578063fdb10f50146102fd576100c1565b8063903a9451146101cb578063a87430ba14610207578063ce606ee014610249576100c1565b80630814e620146100c55780632161493a146100ed5780632beb50a9146101155780632f3300231461013d578063502c9bd514610167578063717c3814146101a3575b5f80fd5b3480156100d0575f80fd5b506100eb60048036038101906100e69190611c50565b610325565b005b3480156100f8575f80fd5b50610113600480360381019061010e9190611d46565b6106d9565b005b348015610120575f80fd5b5061013b60048036038101906101369190611e23565b61094c565b005b348015610148575f80fd5b50610151610bdd565b60405161015e9190611f34565b60405180910390f35b348015610172575f80fd5b5061018d60048036038101906101889190611f54565b610c68565b60405161019a9190611f8e565b60405180910390f35b3480156101ae575f80fd5b506101c960048036038101906101c49190611f54565b610ca3565b005b3480156101d6575f80fd5b506101f160048036038101906101ec9190611f54565b610fa5565b6040516101fe9190611fb6565b60405180910390f35b348015610212575f80fd5b5061022d60048036038101906102289190611fcf565b610fc5565b604051610240979695949392919061208e565b60405180910390f35b348015610254575f80fd5b5061025d6111c0565b60405161026a9190611f8e565b60405180910390f35b61028d60048036038101906102889190611f54565b6111e3565b005b34801561029a575f80fd5b506102a36114cb565b6040516102b091906121c7565b60405180910390f35b3480156102c4575f80fd5b506102df60048036038101906102da9190611f54565b611521565b6040516102f49998979695949392919061227a565b60405180910390f35b348015610308575f80fd5b50610323600480360381019061031e9190612344565b6117ce565b005b60015f3373ffffffffffffffffffffffffffffffffffffffff1673ffffffffffffffffffffffffffffffffffffffff1681526020019081526020015f206006015f9054906101000a900460ff166103b1576040517f08c379a00000000000000000000000000000000000000000000000000000000081526004016103a8906123cc565b60405180910390fd5b5f73ffffffffffffffffffffffffffffffffffffffff1660025f8381526020019081526020015f205f015f9054906101000a900473ffffffffffffffffffffffffffffffffffffffff1673ffffffffffffffffffffffffffffffffffffffff1614610451576040517f08c379a000000000000000000000000000000000000000000000000000000000815260040161044890612434565b60405180910390fd5b6040518061012001604052803373ffffffffffffffffffffffffffffffffffffffff1681526020018581526020018481526020018381526020018281526020016040518060400160405280600781526020017f50656e64696e670000000000000000000000000000000000000000000000000081525081526020016040518060400160405280600d81526020017f4e6f7420417661696c61626c650000000000000000000000000000000000000081525081526020015f73ffffffffffffffffffffffffffffffffffffffff1681526020015f600381111561053657610535612207565b5b81525060025f8381526020019081526020015f205f820151815f015f6101000a81548173ffffffffffffffffffffffffffffffffffffffff021916908373ffffffffffffffffffffffffffffffffffffffff16021790555060208201518160010190816105a3919061264c565b5060408201518160020190816105b9919061264c565b50606082015181600301556080820151816004015560a08201518160050190816105e3919061264c565b5060c08201518160060190816105f9919061264c565b5060e0820151816007015f6101000a81548173ffffffffffffffffffffffffffffffffffffffff021916908373ffffffffffffffffffffffffffffffffffffffff1602179055506101008201518160070160146101000a81548160ff0219169083600381111561066c5761066b612207565b5b0217905550905050600481908060018154018082558091505060019003905f5260205f20015f90919091909150557fcb4990052f95f6057496d19524f6c3163f50af9f33f2c15b092928e03414323e81336040516106cb92919061271b565b60405180910390a150505050565b60015f8773ffffffffffffffffffffffffffffffffffffffff1673ffffffffffffffffffffffffffffffffffffffff1681526020019081526020015f206006015f9054906101000a900460ff1615610766576040517f08c379a000000000000000000000000000000000000000000000000000000000815260040161075d9061278c565b60405180910390fd5b6040518060e001604052808773ffffffffffffffffffffffffffffffffffffffff1681526020018681526020018581526020018481526020018381526020018281526020016001151581525060015f8873ffffffffffffffffffffffffffffffffffffffff1673ffffffffffffffffffffffffffffffffffffffff1681526020019081526020015f205f820151815f015f6101000a81548173ffffffffffffffffffffffffffffffffffffffff021916908373ffffffffffffffffffffffffffffffffffffffff1602179055506020820151816001019081610848919061264c565b50604082015181600201556060820151816003019081610868919061264c565b506080820151816004015560a0820151816005019081610888919061264c565b5060c0820151816006015f6101000a81548160ff021916908315150217905550905050600386908060018154018082558091505060019003905f5260205f20015f9091909190916101000a81548173ffffffffffffffffffffffffffffffffffffffff021916908373ffffffffffffffffffffffffffffffffffffffff1602179055507f48cac28ad4dc618e15f4c2dd5e97751182f166de97b25618318b2112aa951a2f868660405161093c9291906127aa565b60405180910390a1505050505050565b5f8054906101000a900473ffffffffffffffffffffffffffffffffffffffff1673ffffffffffffffffffffffffffffffffffffffff163373ffffffffffffffffffffffffffffffffffffffff16146109d9576040517f08c379a00000000000000000000000000000000000000000000000000000000081526004016109d090612822565b60405180910390fd5b5f73ffffffffffffffffffffffffffffffffffffffff1660025f8481526020019081526020015f205f015f9054906101000a900473ffffffffffffffffffffffffffffffffffffffff1673ffffffffffffffffffffffffffffffffffffffff1603610a79576040517f08c379a0000000000000000000000000000000000000000000000000000000008152600401610a709061288a565b60405180910390fd5b8060025f8481526020019081526020015f206005019081610a9a919061264c565b50604051602001610aaa906128fc565b6040516020818303038152906040528051906020012081604051602001610ad19190612940565b6040516020818303038152906040528051906020012003610b48576040518060400160405280600981526020017f417661696c61626c65000000000000000000000000000000000000000000000081525060025f8481526020019081526020015f206006019081610b42919061264c565b50610ba0565b6040518060400160405280600d81526020017f4e6f7420417661696c61626c650000000000000000000000000000000000000081525060025f8481526020019081526020015f206006019081610b9e919061264c565b505b7fbe280aff1c84dfc59bcaa56909bc5b9e5a5567e46a0f845d641dda3ed44e216a8282604051610bd1929190612956565b60405180910390a15050565b60606003805480602002602001604051908101604052809291908181526020018280548015610c5e57602002820191905f5260205f20905b815f9054906101000a900473ffffffffffffffffffffffffffffffffffffffff1673ffffffffffffffffffffffffffffffffffffffff1681526020019060010190808311610c15575b5050505050905090565b60038181548110610c77575f80fd5b905f5260205f20015f915054906101000a900473ffffffffffffffffffffffffffffffffffffffff1681565b5f73ffffffffffffffffffffffffffffffffffffffff1660025f8381526020019081526020015f205f015f9054906101000a900473ffffffffffffffffffffffffffffffffffffffff1673ffffffffffffffffffffffffffffffffffffffff1603610d43576040517f08c379a0000000000000000000000000000000000000000000000000000000008152600401610d3a9061288a565b60405180910390fd5b604051602001610d52906129ce565b6040516020818303038152906040528051906020012060025f8381526020019081526020015f20600601604051602001610d8c9190612a62565b6040516020818303038152906040528051906020012014610de2576040517f08c379a0000000000000000000000000000000000000000000000000000000008152600401610dd990612ac2565b60405180910390fd5b5f73ffffffffffffffffffffffffffffffffffffffff1660025f8381526020019081526020015f206007015f9054906101000a900473ffffffffffffffffffffffffffffffffffffffff1673ffffffffffffffffffffffffffffffffffffffff1614610e83576040517f08c379a0000000000000000000000000000000000000000000000000000000008152600401610e7a90612b2a565b60405180910390fd5b3360025f8381526020019081526020015f206007015f6101000a81548173ffffffffffffffffffffffffffffffffffffffff021916908373ffffffffffffffffffffffffffffffffffffffff160217905550600160025f8381526020019081526020015f2060070160146101000a81548160ff02191690836003811115610f0d57610f0c612207565b5b02179055506040518060400160405280600781526020017f50656e64696e670000000000000000000000000000000000000000000000000081525060025f8381526020019081526020015f206006019081610f68919061264c565b507f27f5e29868c20b1933c6aad2658197dee7407ffea46e418eca5c12ed3a5199ae8133604051610f9a92919061271b565b60405180910390a150565b60048181548110610fb4575f80fd5b905f5260205f20015f915090505481565b6001602052805f5260405f205f91509050805f015f9054906101000a900473ffffffffffffffffffffffffffffffffffffffff16908060010180546110099061247f565b80601f01602080910402602001604051908101604052809291908181526020018280546110359061247f565b80156110805780601f1061105757610100808354040283529160200191611080565b820191905f5260205f20905b81548152906001019060200180831161106357829003601f168201915b50505050509080600201549080600301805461109b9061247f565b80601f01602080910402602001604051908101604052809291908181526020018280546110c79061247f565b80156111125780601f106110e957610100808354040283529160200191611112565b820191905f5260205f20905b8154815290600101906020018083116110f557829003601f168201915b50505050509080600401549080600501805461112d9061247f565b80601f01602080910402602001604051908101604052809291908181526020018280546111599061247f565b80156111a45780601f1061117b576101008083540402835291602001916111a4565b820191905f5260205f20905b81548152906001019060200180831161118757829003601f168201915b505050505090806006015f9054906101000a900460ff16905087565b5f8054906101000a900473ffffffffffffffffffffffffffffffffffffffff1681565b6003808111156111f6576111f5612207565b5b60025f8381526020019081526020015f2060070160149054906101000a900460ff16600381111561122a57611229612207565b5b1461126a576040517f08c379a000000000000000000000000000000000000000000000000000000000815260040161126190612b92565b60405180910390fd5b60025f8281526020019081526020015f206003015434146112c0576040517f08c379a00000000000000000000000000000000000000000000000000000000081526004016112b790612bfa565b60405180910390fd5b5f60025f8381526020019081526020015f205f015f9054906101000a900473ffffffffffffffffffffffffffffffffffffffff1690508073ffffffffffffffffffffffffffffffffffffffff166108fc3490811502906040515f60405180830381858888f19350505050158015611339573d5f803e3d5ffd5b503360025f8481526020019081526020015f205f015f6101000a81548173ffffffffffffffffffffffffffffffffffffffff021916908373ffffffffffffffffffffffffffffffffffffffff1602179055506040518060400160405280600c81526020017f4e6f7420417070726f766564000000000000000000000000000000000000000081525060025f8481526020019081526020015f2060050190816113e1919061264c565b506040518060400160405280600d81526020017f4e6f7420417661696c61626c650000000000000000000000000000000000000081525060025f8481526020019081526020015f206006019081611438919061264c565b505f60025f8481526020019081526020015f206007015f6101000a81548173ffffffffffffffffffffffffffffffffffffffff021916908373ffffffffffffffffffffffffffffffffffffffff1602179055505f60025f8481526020019081526020015f2060070160146101000a81548160ff021916908360038111156114c2576114c1612207565b5b02179055505050565b6060600480548060200260200160405190810160405280929190818152602001828054801561151757602002820191905f5260205f20905b815481526020019060010190808311611503575b5050505050905090565b6002602052805f5260405f205f91509050805f015f9054906101000a900473ffffffffffffffffffffffffffffffffffffffff16908060010180546115659061247f565b80601f01602080910402602001604051908101604052809291908181526020018280546115919061247f565b80156115dc5780601f106115b3576101008083540402835291602001916115dc565b820191905f5260205f20905b8154815290600101906020018083116115bf57829003601f168201915b5050505050908060020180546115f19061247f565b80601f016020809104026020016040519081016040528092919081815260200182805461161d9061247f565b80156116685780601f1061163f57610100808354040283529160200191611668565b820191905f5260205f20905b81548152906001019060200180831161164b57829003601f168201915b5050505050908060030154908060040154908060050180546116899061247f565b80601f01602080910402602001604051908101604052809291908181526020018280546116b59061247f565b80156117005780601f106116d757610100808354040283529160200191611700565b820191905f5260205f20905b8154815290600101906020018083116116e357829003601f168201915b5050505050908060060180546117159061247f565b80601f01602080910402602001604051908101604052809291908181526020018280546117419061247f565b801561178c5780601f106117635761010080835404028352916020019161178c565b820191905f5260205f20905b81548152906001019060200180831161176f57829003601f168201915b505050505090806007015f9054906101000a900473ffffffffffffffffffffffffffffffffffffffff16908060070160149054906101000a900460ff16905089565b3373ffffffffffffffffffffffffffffffffffffffff1660025f8481526020019081526020015f205f015f9054906101000a900473ffffffffffffffffffffffffffffffffffffffff1673ffffffffffffffffffffffffffffffffffffffff161461186e576040517f08c379a000000000000000000000000000000000000000000000000000000000815260040161186590612c88565b60405180910390fd5b6001600381111561188257611881612207565b5b60025f8481526020019081526020015f2060070160149054906101000a900460ff1660038111156118b6576118b5612207565b5b146118f6576040517f08c379a00000000000000000000000000000000000000000000000000000000081526004016118ed90612cf0565b60405180910390fd5b8060025f8481526020019081526020015f2060070160146101000a81548160ff0219169083600381111561192d5761192c612207565b5b021790555060038081111561194557611944612207565b5b81600381111561195857611957612207565b5b036119b9576040518060400160405280600481526020017f536f6c640000000000000000000000000000000000000000000000000000000081525060025f8481526020019081526020015f2060060190816119b3919061264c565b50611acc565b600260038111156119cd576119cc612207565b5b8160038111156119e0576119df612207565b5b03611acb575f60025f8481526020019081526020015f206007015f6101000a81548173ffffffffffffffffffffffffffffffffffffffff021916908373ffffffffffffffffffffffffffffffffffffffff1602179055505f60025f8481526020019081526020015f2060070160146101000a81548160ff02191690836003811115611a6e57611a6d612207565b5b02179055506040518060400160405280600981526020017f417661696c61626c65000000000000000000000000000000000000000000000081525060025f8481526020019081526020015f206006019081611ac9919061264c565b505b5b5050565b5f604051905090565b5f80fd5b5f80fd5b5f80fd5b5f80fd5b5f601f19601f8301169050919050565b7f4e487b71000000000000000000000000000000000000000000000000000000005f52604160045260245ffd5b611b2f82611ae9565b810181811067ffffffffffffffff82111715611b4e57611b4d611af9565b5b80604052505050565b5f611b60611ad0565b9050611b6c8282611b26565b919050565b5f67ffffffffffffffff821115611b8b57611b8a611af9565b5b611b9482611ae9565b9050602081019050919050565b828183375f83830152505050565b5f611bc1611bbc84611b71565b611b57565b905082815260208101848484011115611bdd57611bdc611ae5565b5b611be8848285611ba1565b509392505050565b5f82601f830112611c0457611c03611ae1565b5b8135611c14848260208601611baf565b91505092915050565b5f819050919050565b611c2f81611c1d565b8114611c39575f80fd5b50565b5f81359050611c4a81611c26565b92915050565b5f805f8060808587031215611c6857611c67611ad9565b5b5f85013567ffffffffffffffff811115611c8557611c84611add565b5b611c9187828801611bf0565b945050602085013567ffffffffffffffff811115611cb257611cb1611add565b5b611cbe87828801611bf0565b9350506040611ccf87828801611c3c565b9250506060611ce087828801611c3c565b91505092959194509250565b5f73ffffffffffffffffffffffffffffffffffffffff82169050919050565b5f611d1582611cec565b9050919050565b611d2581611d0b565b8114611d2f575f80fd5b50565b5f81359050611d4081611d1c565b92915050565b5f805f805f8060c08789031215611d6057611d5f611ad9565b5b5f611d6d89828a01611d32565b965050602087013567ffffffffffffffff811115611d8e57611d8d611add565b5b611d9a89828a01611bf0565b9550506040611dab89828a01611c3c565b945050606087013567ffffffffffffffff811115611dcc57611dcb611add565b5b611dd889828a01611bf0565b9350506080611de989828a01611c3c565b92505060a087013567ffffffffffffffff811115611e0a57611e09611add565b5b611e1689828a01611bf0565b9150509295509295509295565b5f8060408385031215611e3957611e38611ad9565b5b5f611e4685828601611c3c565b925050602083013567ffffffffffffffff811115611e6757611e66611add565b5b611e7385828601611bf0565b9150509250929050565b5f81519050919050565b5f82825260208201905092915050565b5f819050602082019050919050565b611eaf81611d0b565b82525050565b5f611ec08383611ea6565b60208301905092915050565b5f602082019050919050565b5f611ee282611e7d565b611eec8185611e87565b9350611ef783611e97565b805f5b83811015611f27578151611f0e8882611eb5565b9750611f1983611ecc565b925050600181019050611efa565b5085935050505092915050565b5f6020820190508181035f830152611f4c8184611ed8565b905092915050565b5f60208284031215611f6957611f68611ad9565b5b5f611f7684828501611c3c565b91505092915050565b611f8881611d0b565b82525050565b5f602082019050611fa15f830184611f7f565b92915050565b611fb081611c1d565b82525050565b5f602082019050611fc95f830184611fa7565b92915050565b5f60208284031215611fe457611fe3611ad9565b5b5f611ff184828501611d32565b91505092915050565b5f81519050919050565b5f82825260208201905092915050565b5f5b83811015612031578082015181840152602081019050612016565b5f8484015250505050565b5f61204682611ffa565b6120508185612004565b9350612060818560208601612014565b61206981611ae9565b840191505092915050565b5f8115159050919050565b61208881612074565b82525050565b5f60e0820190506120a15f83018a611f7f565b81810360208301526120b3818961203c565b90506120c26040830188611fa7565b81810360608301526120d4818761203c565b90506120e36080830186611fa7565b81810360a08301526120f5818561203c565b905061210460c083018461207f565b98975050505050505050565b5f81519050919050565b5f82825260208201905092915050565b5f819050602082019050919050565b61214281611c1d565b82525050565b5f6121538383612139565b60208301905092915050565b5f602082019050919050565b5f61217582612110565b61217f818561211a565b935061218a8361212a565b805f5b838110156121ba5781516121a18882612148565b97506121ac8361215f565b92505060018101905061218d565b5085935050505092915050565b5f6020820190508181035f8301526121df818461216b565b905092915050565b5f6121f182611cec565b9050919050565b612201816121e7565b82525050565b7f4e487b71000000000000000000000000000000000000000000000000000000005f52602160045260245ffd5b6004811061224557612244612207565b5b50565b5f81905061225582612234565b919050565b5f61226482612248565b9050919050565b6122748161225a565b82525050565b5f6101208201905061228e5f83018c6121f8565b81810360208301526122a0818b61203c565b905081810360408301526122b4818a61203c565b90506122c36060830189611fa7565b6122d06080830188611fa7565b81810360a08301526122e2818761203c565b905081810360c08301526122f6818661203c565b905061230560e0830185611f7f565b61231361010083018461226b565b9a9950505050505050505050565b6004811061232d575f80fd5b50565b5f8135905061233e81612321565b92915050565b5f806040838503121561235a57612359611ad9565b5b5f61236785828601611c3c565b925050602061237885828601612330565b9150509250929050565b7f55736572206e6f742072656769737465726564000000000000000000000000005f82015250565b5f6123b6601383612004565b91506123c182612382565b602082019050919050565b5f6020820190508181035f8301526123e3816123aa565b9050919050565b7f4c616e6420616c726561647920726567697374657265640000000000000000005f82015250565b5f61241e601783612004565b9150612429826123ea565b602082019050919050565b5f6020820190508181035f83015261244b81612412565b9050919050565b7f4e487b71000000000000000000000000000000000000000000000000000000005f52602260045260245ffd5b5f600282049050600182168061249657607f821691505b6020821081036124a9576124a8612452565b5b50919050565b5f819050815f5260205f209050919050565b5f6020601f8301049050919050565b5f82821b905092915050565b5f6008830261250b7fffffffffffffffffffffffffffffffffffffffffffffffffffffffffffffffff826124d0565b61251586836124d0565b95508019841693508086168417925050509392505050565b5f819050919050565b5f61255061254b61254684611c1d565b61252d565b611c1d565b9050919050565b5f819050919050565b61256983612536565b61257d61257582612557565b8484546124dc565b825550505050565b5f90565b612591612585565b61259c818484612560565b505050565b5b818110156125bf576125b45f82612589565b6001810190506125a2565b5050565b601f821115612604576125d5816124af565b6125de846124c1565b810160208510156125ed578190505b6126016125f9856124c1565b8301826125a1565b50505b505050565b5f82821c905092915050565b5f6126245f1984600802612609565b1980831691505092915050565b5f61263c8383612615565b9150826002028217905092915050565b61265582611ffa565b67ffffffffffffffff81111561266e5761266d611af9565b5b612678825461247f565b6126838282856125c3565b5f60209050601f8311600181146126b4575f84156126a2578287015190505b6126ac8582612631565b865550612713565b601f1984166126c2866124af565b5f5b828110156126e9578489015182556001820191506020850194506020810190506126c4565b868310156127065784890151612702601f891682612615565b8355505b6001600288020188555050505b505050505050565b5f60408201905061272e5f830185611fa7565b61273b6020830184611f7f565b9392505050565b7f5573657220616c726561647920657869737473000000000000000000000000005f82015250565b5f612776601383612004565b915061278182612742565b602082019050919050565b5f6020820190508181035f8301526127a38161276a565b9050919050565b5f6040820190506127bd5f830185611f7f565b81810360208301526127cf818461203c565b90509392505050565b7f4f6e6c7920676f7665726e6d656e742063616e20617070726f766500000000005f82015250565b5f61280c601b83612004565b9150612817826127d8565b602082019050919050565b5f6020820190508181035f83015261283981612800565b9050919050565b7f4c616e64206e6f742072656769737465726564000000000000000000000000005f82015250565b5f612874601383612004565b915061287f82612840565b602082019050919050565b5f6020820190508181035f8301526128a181612868565b9050919050565b5f81905092915050565b7f417070726f7665640000000000000000000000000000000000000000000000005f82015250565b5f6128e66008836128a8565b91506128f1826128b2565b600882019050919050565b5f612906826128da565b9150819050919050565b5f61291a82611ffa565b61292481856128a8565b9350612934818560208601612014565b80840191505092915050565b5f61294b8284612910565b915081905092915050565b5f6040820190506129695f830185611fa7565b818103602083015261297b818461203c565b90509392505050565b7f417661696c61626c6500000000000000000000000000000000000000000000005f82015250565b5f6129b86009836128a8565b91506129c382612984565b600982019050919050565b5f6129d8826129ac565b9150819050919050565b5f81546129ee8161247f565b6129f881866128a8565b9450600182165f8114612a125760018114612a2757612a59565b60ff1983168652811515820286019350612a59565b612a30856124af565b5f5b83811015612a5157815481890152600182019150602081019050612a32565b838801955050505b50505092915050565b5f612a6d82846129e2565b915081905092915050565b7f4c616e64206e6f7420617661696c61626c6500000000000000000000000000005f82015250565b5f612aac601283612004565b9150612ab782612a78565b602082019050919050565b5f6020820190508181035f830152612ad981612aa0565b9050919050565b7f4c616e6420616c726561647920726571756573746564000000000000000000005f82015250565b5f612b14601683612004565b9150612b1f82612ae0565b602082019050919050565b5f6020820190508181035f830152612b4181612b08565b9050919050565b7f52657175657374206e6f7420617070726f7665640000000000000000000000005f82015250565b5f612b7c601483612004565b9150612b8782612b48565b602082019050919050565b5f6020820190508181035f830152612ba981612b70565b9050919050565b7f496e636f7272656374207061796d656e7420616d6f756e7400000000000000005f82015250565b5f612be4601883612004565b9150612bef82612bb0565b602082019050919050565b5f6020820190508181035f830152612c1181612bd8565b9050919050565b7f4f6e6c79206c616e64206f776e65722063616e2070726f6365737320726571755f8201527f6573747300000000000000000000000000000000000000000000000000000000602082015250565b5f612c72602483612004565b9150612c7d82612c18565b604082019050919050565b5f6020820190508181035f830152612c9f81612c66565b9050919050565b7f4e6f2070656e64696e67207265717565737400000000000000000000000000005f82015250565b5f612cda601283612004565b9150612ce582612ca6565b602082019050919050565b5f6020820190508181035f830152612d0781612cce565b905091905056fea264697066735822122080bc2ccd04f116c03aadacbe2855243dc1283d40de122fc9fc881dbb7f48af0064736f6c63430008150033",
  "immutableReferences": {},
  "source": "// SPDX-License-Identifier: MIT\npragma solidity ^0.8.0;\n\ncontract Land {\n    // Struct to store user details\n    struct User {\n        address userId;\n        string name;\n        uint256 contact;\n        string email;\n        uint256 postalCode;\n        string city;\n        bool exists;\n    }\n\n    // Struct to store land details\n    struct LandDetails {\n        address payable owner;\n        string ipfsHash; // For storing land documents\n        string location;\n        uint256 price;\n        uint256 id;\n        string govtApprovalStatus;\n        string availabilityStatus;\n        address requester;\n        RequestStatus requestStatus;\n    }\n\n    // Enum for request status\n    enum RequestStatus { Default, Pending, Rejected, Approved }\n\n    // State variables\n    address public contractOwner;\n    mapping(address => User) public users;\n    mapping(uint256 => LandDetails) public lands;\n    address[] public userAddresses;\n    uint256[] public landIds;\n\n    // Events\n    event UserRegistered(address userId, string name);\n    event LandRegistered(uint256 landId, address owner);\n    event LandRequest(uint256 landId, address requester);\n    event LandApproval(uint256 landId, string status);\n\n    // Constructor\n    constructor() {\n        contractOwner = msg.sender;\n    }\n\n    // Function to register a user\n    function registerUser(\n        address _userId,\n        string memory _name,\n        uint256 _contact,\n        string memory _email,\n        uint256 _postalCode,\n        string memory _city\n    ) public {\n        require(!users[_userId].exists, \"User already exists\");\n        users[_userId] = User(_userId, _name, _contact, _email, _postalCode, _city, true);\n        userAddresses.push(_userId);\n        emit UserRegistered(_userId, _name);\n    }\n\n    // Function to register land\n    function registerLand(\n        string memory _ipfsHash,\n        string memory _location,\n        uint256 _price,\n        uint256 _id\n    ) public {\n        require(users[msg.sender].exists, \"User not registered\");\n        require(lands[_id].owner == address(0), \"Land already registered\");\n\n        lands[_id] = LandDetails(\n            payable(msg.sender),\n            _ipfsHash,\n            _location,\n            _price,\n            _id,\n            \"Pending\",\n            \"Not Available\",\n            address(0),\n            RequestStatus.Default\n        );\n        landIds.push(_id);\n        emit LandRegistered(_id, msg.sender);\n    }\n\n    // Function to request land\n    function requestLand(uint256 _landId) public {\n        require(lands[_landId].owner != address(0), \"Land not registered\");\n        require(keccak256(abi.encodePacked(lands[_landId].availabilityStatus)) == keccak256(abi.encodePacked(\"Available\")), \"Land not available\");\n        require(lands[_landId].requester == address(0), \"Land already requested\");\n\n        lands[_landId].requester = msg.sender;\n        lands[_landId].requestStatus = RequestStatus.Pending;\n        lands[_landId].availabilityStatus = \"Pending\";\n        emit LandRequest(_landId, msg.sender);\n    }\n\n    // Function for government to approve or reject land\n    function approveLand(uint256 _landId, string memory _status) public {\n        require(msg.sender == contractOwner, \"Only government can approve\");\n        require(lands[_landId].owner != address(0), \"Land not registered\");\n\n        lands[_landId].govtApprovalStatus = _status;\n        if (keccak256(abi.encodePacked(_status)) == keccak256(abi.encodePacked(\"Approved\"))) {\n            lands[_landId].availabilityStatus = \"Available\";\n        } else {\n            lands[_landId].availabilityStatus = \"Not Available\";\n        }\n        emit LandApproval(_landId, _status);\n    }\n\n    // Function to process land requests\n    function processRequest(uint256 _landId, RequestStatus _status) public {\n        require(lands[_landId].owner == msg.sender, \"Only land owner can process requests\");\n        require(lands[_landId].requestStatus == RequestStatus.Pending, \"No pending request\");\n\n        lands[_landId].requestStatus = _status;\n        if (_status == RequestStatus.Approved) {\n            lands[_landId].availabilityStatus = \"Sold\";\n        } else if (_status == RequestStatus.Rejected) {\n            lands[_landId].requester = address(0);\n            lands[_landId].requestStatus = RequestStatus.Default;\n            lands[_landId].availabilityStatus = \"Available\";\n        }\n    }\n\n    // Function to buy land\n    function buyLand(uint256 _landId) public payable {\n        require(lands[_landId].requestStatus == RequestStatus.Approved, \"Request not approved\");\n        require(msg.value == lands[_landId].price, \"Incorrect payment amount\");\n\n        address payable previousOwner = lands[_landId].owner;\n        previousOwner.transfer(msg.value);\n\n        lands[_landId].owner = payable(msg.sender);\n        lands[_landId].govtApprovalStatus = \"Not Approved\";\n        lands[_landId].availabilityStatus = \"Not Available\";\n        lands[_landId].requester = address(0);\n        lands[_landId].requestStatus = RequestStatus.Default;\n    }\n\n    // Function to get all registered land IDs\n    function getAllLandIds() public view returns (uint256[] memory) {\n        return landIds;\n    }\n\n    // Function to get all registered user addresses\n    function getAllUserAddresses() public view returns (address[] memory) {\n        return userAddresses;\n    }\n}",
  "sourcePath": "/workspaces/Land-Registry-Application/contracts/Land.sol",
  "compiler": {
    "name": "solc",
    "version": "0.8.21+commit.d9974bed.Emscripten.clang"
  },
  "schemaVersion": "3.4.16",
  "updatedAt": "2025-04-14T09:25:10.055Z",
  "networkType": "ethereum",
  "devdoc": {
    "kind": "dev",
    "methods": {},
    "version": 1
  },
  "userdoc": {
    "kind": "user",
    "methods": {},
    "version": 1
  },
  "db": {
    "callBytecode": {
      "id": "0x7d61465243105f82ad5f6c6d54d060735bc6230275779ce614705ad00ea70f8c"
    },
    "createBytecode": {
      "id": "0xc7ca998f7ab094b65e9c8b0a54748c6c459847f900b4f3e1015a028fde42024b"
    },
    "contract": {
      "id": "0x0c4d09576b2855248231d88b81e6457d72ec7e90359606726af129602500c4a4"
    }
  }
}